{"project/contracts/ProtocolIntegrity.sol":{"ProtocolIntegrity":{"abi":[{"anonymous":false,"inputs":[{"indexed":true,"internalType":"uint256","name":"meetingId","type":"uint256"},{"indexed":false,"internalType":"string","name":"ipfsHash","type":"string"}],"name":"RecordStored","type":"event"},{"inputs":[{"internalType":"uint256","name":"_meetingId","type":"uint256"}],"name":"getHash","outputs":[{"internalType":"string","name":"","type":"string"}],"stateMutability":"view","type":"function"},{"inputs":[{"internalType":"uint256","name":"","type":"uint256"}],"name":"meetingRecords","outputs":[{"internalType":"string","name":"ipfsHash","type":"string"},{"internalType":"uint256","name":"timestamp","type":"uint256"},{"internalType":"address","name":"owner","type":"address"}],"stateMutability":"view","type":"function"},{"inputs":[{"internalType":"uint256","name":"_meetingId","type":"uint256"},{"internalType":"string","name":"_ipfsHash","type":"string"}],"name":"storeHash","outputs":[],"stateMutability":"nonpayable","type":"function"}],"evm":{"bytecode":{"linkReferences":{},"object":"6080604052348015600e575f5ffd5b5061056e8061001c5f395ff3fe608060405234801561000f575f5ffd5b506004361061003f575f3560e01c80636b2fafa9146100435780637d58fed41461006c5780639b6bd89c1461008e575b5f5ffd5b610056610051366004610298565b6100a3565b60405161006391906102dd565b60405180910390f35b61007f61007a366004610298565b610142565b604051610063939291906102f6565b6100a161009c36600461033c565b6101f3565b005b5f8181526020819052604090208054606091906100bf906103f9565b80601f01602080910402602001604051908101604052809291908181526020018280546100eb906103f9565b80156101365780601f1061010d57610100808354040283529160200191610136565b820191905f5260205f20905b81548152906001019060200180831161011957829003601f168201915b50505050509050919050565b5f6020819052908152604090208054819061015c906103f9565b80601f0160208091040260200160405190810160405280929190818152602001828054610188906103f9565b80156101d35780601f106101aa576101008083540402835291602001916101d3565b820191905f5260205f20905b8154815290600101906020018083116101b657829003601f168201915b5050505060018301546002909301549192916001600160a01b0316905083565b604080516060810182528281524260208083019190915233828401525f858152908190529190912081518190610229908261047d565b5060208201516001820155604091820151600290910180546001600160a01b0319166001600160a01b039092169190911790555182907f62b9afc96e0bb7bba1d79f7af7452a62a3d084c35c85ba2d549605ece060b92b9061028c9084906102dd565b60405180910390a25050565b5f602082840312156102a8575f5ffd5b5035919050565b5f81518084528060208401602086015e5f602082860101526020601f19601f83011685010191505092915050565b602081525f6102ef60208301846102af565b9392505050565b606081525f61030860608301866102af565b6020830194909452506001600160a01b0391909116604090910152919050565b634e487b7160e01b5f52604160045260245ffd5b5f5f6040838503121561034d575f5ffd5b82359150602083013567ffffffffffffffff81111561036a575f5ffd5b8301601f8101851361037a575f5ffd5b803567ffffffffffffffff81111561039457610394610328565b604051601f8201601f19908116603f0116810167ffffffffffffffff811182821017156103c3576103c3610328565b6040528181528282016020018710156103da575f5ffd5b816020840160208301375f602083830101528093505050509250929050565b600181811c9082168061040d57607f821691505b60208210810361042b57634e487b7160e01b5f52602260045260245ffd5b50919050565b601f82111561047857805f5260205f20601f840160051c810160208510156104565750805b601f840160051c820191505b81811015610475575f8155600101610462565b50505b505050565b815167ffffffffffffffff81111561049757610497610328565b6104ab816104a584546103f9565b84610431565b6020601f8211600181146104dd575f83156104c65750848201515b5f19600385901b1c1916600184901b178455610475565b5f84815260208120601f198516915b8281101561050c57878501518255602094850194600190920191016104ec565b508482101561052957868401515f19600387901b60f8161c191681555b50505050600190811b0190555056fea264697066735822122069e88ddfd56334f11df1ca533fb248ab91d058af6558bb804f50ced9ba6920ac64736f6c634300081c0033","opcodes":"PUSH1 0x80 PUSH1 0x40 MSTORE CALLVALUE DUP1 ISZERO PUSH1 0xE JUMPI PUSH0 PUSH0 REVERT JUMPDEST POP PUSH2 0x56E DUP1 PUSH2 0x1C PUSH0 CODECOPY PUSH0 RETURN INVALID PUSH1 0x80 PUSH1 0x40 MSTORE CALLVALUE DUP1 ISZERO PUSH2 0xF JUMPI PUSH0 PUSH0 REVERT JUMPDEST POP PUSH1 0x4 CALLDATASIZE LT PUSH2 0x3F JUMPI PUSH0 CALLDATALOAD PUSH1 0xE0 SHR DUP1 PUSH4 0x6B2FAFA9 EQ PUSH2 0x43 JUMPI DUP1 PUSH4 0x7D58FED4 EQ PUSH2 0x6C JUMPI DUP1 PUSH4 0x9B6BD89C EQ PUSH2 0x8E JUMPI JUMPDEST PUSH0 PUSH0 REVERT JUMPDEST PUSH2 0x56 PUSH2 0x51 CALLDATASIZE PUSH1 0x4 PUSH2 0x298 JUMP JUMPDEST PUSH2 0xA3 JUMP JUMPDEST PUSH1 0x40 MLOAD PUSH2 0x63 SWAP2 SWAP1 PUSH2 0x2DD JUMP JUMPDEST PUSH1 0x40 MLOAD DUP1 SWAP2 SUB SWAP1 RETURN JUMPDEST PUSH2 0x7F PUSH2 0x7A CALLDATASIZE PUSH1 0x4 PUSH2 0x298 JUMP JUMPDEST PUSH2 0x142 JUMP JUMPDEST PUSH1 0x40 MLOAD PUSH2 0x63 SWAP4 SWAP3 SWAP2 SWAP1 PUSH2 0x2F6 JUMP JUMPDEST PUSH2 0xA1 PUSH2 0x9C CALLDATASIZE PUSH1 0x4 PUSH2 0x33C JUMP JUMPDEST PUSH2 0x1F3 JUMP JUMPDEST STOP JUMPDEST PUSH0 DUP2 DUP2 MSTORE PUSH1 0x20 DUP2 SWAP1 MSTORE PUSH1 0x40 SWAP1 KECCAK256 DUP1 SLOAD PUSH1 0x60 SWAP2 SWAP1 PUSH2 0xBF SWAP1 PUSH2 0x3F9 JUMP JUMPDEST DUP1 PUSH1 0x1F ADD PUSH1 0x20 DUP1 SWAP2 DIV MUL PUSH1 0x20 ADD PUSH1 0x40 MLOAD SWAP1 DUP2 ADD PUSH1 0x40 MSTORE DUP1 SWAP3 SWAP2 SWAP1 DUP2 DUP2 MSTORE PUSH1 0x20 ADD DUP3 DUP1 SLOAD PUSH2 0xEB SWAP1 PUSH2 0x3F9 JUMP JUMPDEST DUP1 ISZERO PUSH2 0x136 JUMPI DUP1 PUSH1 0x1F LT PUSH2 0x10D JUMPI PUSH2 0x100 DUP1 DUP4 SLOAD DIV MUL DUP4 MSTORE SWAP2 PUSH1 0x20 ADD SWAP2 PUSH2 0x136 JUMP JUMPDEST DUP3 ADD SWAP2 SWAP1 PUSH0 MSTORE PUSH1 0x20 PUSH0 KECCAK256 SWAP1 JUMPDEST DUP2 SLOAD DUP2 MSTORE SWAP1 PUSH1 0x1 ADD SWAP1 PUSH1 0x20 ADD DUP1 DUP4 GT PUSH2 0x119 JUMPI DUP3 SWAP1 SUB PUSH1 0x1F AND DUP3 ADD SWAP2 JUMPDEST POP POP POP POP POP SWAP1 POP SWAP2 SWAP1 POP JUMP JUMPDEST PUSH0 PUSH1 0x20 DUP2 SWAP1 MSTORE SWAP1 DUP2 MSTORE PUSH1 0x40 SWAP1 KECCAK256 DUP1 SLOAD DUP2 SWAP1 PUSH2 0x15C SWAP1 PUSH2 0x3F9 JUMP JUMPDEST DUP1 PUSH1 0x1F ADD PUSH1 0x20 DUP1 SWAP2 DIV MUL PUSH1 0x20 ADD PUSH1 0x40 MLOAD SWAP1 DUP2 ADD PUSH1 0x40 MSTORE DUP1 SWAP3 SWAP2 SWAP1 DUP2 DUP2 MSTORE PUSH1 0x20 ADD DUP3 DUP1 SLOAD PUSH2 0x188 SWAP1 PUSH2 0x3F9 JUMP JUMPDEST DUP1 ISZERO PUSH2 0x1D3 JUMPI DUP1 PUSH1 0x1F LT PUSH2 0x1AA JUMPI PUSH2 0x100 DUP1 DUP4 SLOAD DIV MUL DUP4 MSTORE SWAP2 PUSH1 0x20 ADD SWAP2 PUSH2 0x1D3 JUMP JUMPDEST DUP3 ADD SWAP2 SWAP1 PUSH0 MSTORE PUSH1 0x20 PUSH0 KECCAK256 SWAP1 JUMPDEST DUP2 SLOAD DUP2 MSTORE SWAP1 PUSH1 0x1 ADD SWAP1 PUSH1 0x20 ADD DUP1 DUP4 GT PUSH2 0x1B6 JUMPI DUP3 SWAP1 SUB PUSH1 0x1F AND DUP3 ADD SWAP2 JUMPDEST POP POP POP POP PUSH1 0x1 DUP4 ADD SLOAD PUSH1 0x2 SWAP1 SWAP4 ADD SLOAD SWAP2 SWAP3 SWAP2 PUSH1 0x1 PUSH1 0x1 PUSH1 0xA0 SHL SUB AND SWAP1 POP DUP4 JUMP JUMPDEST PUSH1 0x40 DUP1 MLOAD PUSH1 0x60 DUP2 ADD DUP3 MSTORE DUP3 DUP2 MSTORE TIMESTAMP PUSH1 0x20 DUP1 DUP4 ADD SWAP2 SWAP1 SWAP2 MSTORE CALLER DUP3 DUP5 ADD MSTORE PUSH0 DUP6 DUP2 MSTORE SWAP1 DUP2 SWAP1 MSTORE SWAP2 SWAP1 SWAP2 KECCAK256 DUP2 MLOAD DUP2 SWAP1 PUSH2 0x229 SWAP1 DUP3 PUSH2 0x47D JUMP JUMPDEST POP PUSH1 0x20 DUP3 ADD MLOAD PUSH1 0x1 DUP3 ADD SSTORE PUSH1 0x40 SWAP2 DUP3 ADD MLOAD PUSH1 0x2 SWAP1 SWAP2 ADD DUP1 SLOAD PUSH1 0x1 PUSH1 0x1 PUSH1 0xA0 SHL SUB NOT AND PUSH1 0x1 PUSH1 0x1 PUSH1 0xA0 SHL SUB SWAP1 SWAP3 AND SWAP2 SWAP1 SWAP2 OR SWAP1 SSTORE MLOAD DUP3 SWAP1 PUSH32 0x62B9AFC96E0BB7BBA1D79F7AF7452A62A3D084C35C85BA2D549605ECE060B92B SWAP1 PUSH2 0x28C SWAP1 DUP5 SWAP1 PUSH2 0x2DD JUMP JUMPDEST PUSH1 0x40 MLOAD DUP1 SWAP2 SUB SWAP1 LOG2 POP POP JUMP JUMPDEST PUSH0 PUSH1 0x20 DUP3 DUP5 SUB SLT ISZERO PUSH2 0x2A8 JUMPI PUSH0 PUSH0 REVERT JUMPDEST POP CALLDATALOAD SWAP2 SWAP1 POP JUMP JUMPDEST PUSH0 DUP2 MLOAD DUP1 DUP5 MSTORE DUP1 PUSH1 0x20 DUP5 ADD PUSH1 0x20 DUP7 ADD MCOPY PUSH0 PUSH1 0x20 DUP3 DUP7 ADD ADD MSTORE PUSH1 0x20 PUSH1 0x1F NOT PUSH1 0x1F DUP4 ADD AND DUP6 ADD ADD SWAP2 POP POP SWAP3 SWAP2 POP POP JUMP JUMPDEST PUSH1 0x20 DUP2 MSTORE PUSH0 PUSH2 0x2EF PUSH1 0x20 DUP4 ADD DUP5 PUSH2 0x2AF JUMP JUMPDEST SWAP4 SWAP3 POP POP POP JUMP JUMPDEST PUSH1 0x60 DUP2 MSTORE PUSH0 PUSH2 0x308 PUSH1 0x60 DUP4 ADD DUP7 PUSH2 0x2AF JUMP JUMPDEST PUSH1 0x20 DUP4 ADD SWAP5 SWAP1 SWAP5 MSTORE POP PUSH1 0x1 PUSH1 0x1 PUSH1 0xA0 SHL SUB SWAP2 SWAP1 SWAP2 AND PUSH1 0x40 SWAP1 SWAP2 ADD MSTORE SWAP2 SWAP1 POP JUMP JUMPDEST PUSH4 0x4E487B71 PUSH1 0xE0 SHL PUSH0 MSTORE PUSH1 0x41 PUSH1 0x4 MSTORE PUSH1 0x24 PUSH0 REVERT JUMPDEST PUSH0 PUSH0 PUSH1 0x40 DUP4 DUP6 SUB SLT ISZERO PUSH2 0x34D JUMPI PUSH0 PUSH0 REVERT JUMPDEST DUP3 CALLDATALOAD SWAP2 POP PUSH1 0x20 DUP4 ADD CALLDATALOAD PUSH8 0xFFFFFFFFFFFFFFFF DUP2 GT ISZERO PUSH2 0x36A JUMPI PUSH0 PUSH0 REVERT JUMPDEST DUP4 ADD PUSH1 0x1F DUP2 ADD DUP6 SGT PUSH2 0x37A JUMPI PUSH0 PUSH0 REVERT JUMPDEST DUP1 CALLDATALOAD PUSH8 0xFFFFFFFFFFFFFFFF DUP2 GT ISZERO PUSH2 0x394 JUMPI PUSH2 0x394 PUSH2 0x328 JUMP JUMPDEST PUSH1 0x40 MLOAD PUSH1 0x1F DUP3 ADD PUSH1 0x1F NOT SWAP1 DUP2 AND PUSH1 0x3F ADD AND DUP2 ADD PUSH8 0xFFFFFFFFFFFFFFFF DUP2 GT DUP3 DUP3 LT OR ISZERO PUSH2 0x3C3 JUMPI PUSH2 0x3C3 PUSH2 0x328 JUMP JUMPDEST PUSH1 0x40 MSTORE DUP2 DUP2 MSTORE DUP3 DUP3 ADD PUSH1 0x20 ADD DUP8 LT ISZERO PUSH2 0x3DA JUMPI PUSH0 PUSH0 REVERT JUMPDEST DUP2 PUSH1 0x20 DUP5 ADD PUSH1 0x20 DUP4 ADD CALLDATACOPY PUSH0 PUSH1 0x20 DUP4 DUP4 ADD ADD MSTORE DUP1 SWAP4 POP POP POP POP SWAP3 POP SWAP3 SWAP1 POP JUMP JUMPDEST PUSH1 0x1 DUP2 DUP2 SHR SWAP1 DUP3 AND DUP1 PUSH2 0x40D JUMPI PUSH1 0x7F DUP3 AND SWAP2 POP JUMPDEST PUSH1 0x20 DUP3 LT DUP2 SUB PUSH2 0x42B JUMPI PUSH4 0x4E487B71 PUSH1 0xE0 SHL PUSH0 MSTORE PUSH1 0x22 PUSH1 0x4 MSTORE PUSH1 0x24 PUSH0 REVERT JUMPDEST POP SWAP2 SWAP1 POP JUMP JUMPDEST PUSH1 0x1F DUP3 GT ISZERO PUSH2 0x478 JUMPI DUP1 PUSH0 MSTORE PUSH1 0x20 PUSH0 KECCAK256 PUSH1 0x1F DUP5 ADD PUSH1 0x5 SHR DUP2 ADD PUSH1 0x20 DUP6 LT ISZERO PUSH2 0x456 JUMPI POP DUP1 JUMPDEST PUSH1 0x1F DUP5 ADD PUSH1 0x5 SHR DUP3 ADD SWAP2 POP JUMPDEST DUP2 DUP2 LT ISZERO PUSH2 0x475 JUMPI PUSH0 DUP2 SSTORE PUSH1 0x1 ADD PUSH2 0x462 JUMP JUMPDEST POP POP JUMPDEST POP POP POP JUMP JUMPDEST DUP2 MLOAD PUSH8 0xFFFFFFFFFFFFFFFF DUP2 GT ISZERO PUSH2 0x497 JUMPI PUSH2 0x497 PUSH2 0x328 JUMP JUMPDEST PUSH2 0x4AB DUP2 PUSH2 0x4A5 DUP5 SLOAD PUSH2 0x3F9 JUMP JUMPDEST DUP5 PUSH2 0x431 JUMP JUMPDEST PUSH1 0x20 PUSH1 0x1F DUP3 GT PUSH1 0x1 DUP2 EQ PUSH2 0x4DD JUMPI PUSH0 DUP4 ISZERO PUSH2 0x4C6 JUMPI POP DUP5 DUP3 ADD MLOAD JUMPDEST PUSH0 NOT PUSH1 0x3 DUP6 SWAP1 SHL SHR NOT AND PUSH1 0x1 DUP5 SWAP1 SHL OR DUP5 SSTORE PUSH2 0x475 JUMP JUMPDEST PUSH0 DUP5 DUP2 MSTORE PUSH1 0x20 DUP2 KECCAK256 PUSH1 0x1F NOT DUP6 AND SWAP2 JUMPDEST DUP3 DUP2 LT ISZERO PUSH2 0x50C JUMPI DUP8 DUP6 ADD MLOAD DUP3 SSTORE PUSH1 0x20 SWAP5 DUP6 ADD SWAP5 PUSH1 0x1 SWAP1 SWAP3 ADD SWAP2 ADD PUSH2 0x4EC JUMP JUMPDEST POP DUP5 DUP3 LT ISZERO PUSH2 0x529 JUMPI DUP7 DUP5 ADD MLOAD PUSH0 NOT PUSH1 0x3 DUP8 SWAP1 SHL PUSH1 0xF8 AND SHR NOT AND DUP2 SSTORE JUMPDEST POP POP POP POP PUSH1 0x1 SWAP1 DUP2 SHL ADD SWAP1 SSTORE POP JUMP INVALID LOG2 PUSH5 0x6970667358 0x22 SLT KECCAK256 PUSH10 0xE88DDFD56334F11DF1CA MSTORE8 EXTCODEHASH 0xB2 BASEFEE 0xAB SWAP2 0xD0 PC 0xAF PUSH6 0x58BB804F50CE 0xD9 0xBA PUSH10 0x20AC64736F6C63430008 SHR STOP CALLER "},"methodIdentifiers":{"getHash(uint256)":"6b2fafa9","meetingRecords(uint256)":"7d58fed4","storeHash(uint256,string)":"9b6bd89c"}}}}}